{
  "_format": "hh-sol-artifact-1",
  "contractName": "GNET",
  "sourceName": "contracts/GNET.sol",
  "abi": [
    {
      "inputs": [
        {
          "internalType": "string",
          "name": "_tokenURI",
          "type": "string"
        }
      ],
      "stateMutability": "nonpayable",
      "type": "constructor"
    },
    {
      "inputs": [],
      "name": "ECDSAInvalidSignature",
      "type": "error"
    },
    {
      "inputs": [
        {
          "internalType": "uint256",
          "name": "length",
          "type": "uint256"
        }
      ],
      "name": "ECDSAInvalidSignatureLength",
      "type": "error"
    },
    {
      "inputs": [
        {
          "internalType": "bytes32",
          "name": "s",
          "type": "bytes32"
        }
      ],
      "name": "ECDSAInvalidSignatureS",
      "type": "error"
    },
    {
      "inputs": [
        {
          "internalType": "address",
          "name": "spender",
          "type": "address"
        },
        {
          "internalType": "uint256",
          "name": "allowance",
          "type": "uint256"
        },
        {
          "internalType": "uint256",
          "name": "needed",
          "type": "uint256"
        }
      ],
      "name": "ERC20InsufficientAllowance",
      "type": "error"
    },
    {
      "inputs": [
        {
          "internalType": "address",
          "name": "sender",
          "type": "address"
        },
        {
          "internalType": "uint256",
          "name": "balance",
          "type": "uint256"
        },
        {
          "internalType": "uint256",
          "name": "needed",
          "type": "uint256"
        }
      ],
      "name": "ERC20InsufficientBalance",
      "type": "error"
    },
    {
      "inputs": [
        {
          "internalType": "address",
          "name": "approver",
          "type": "address"
        }
      ],
      "name": "ERC20InvalidApprover",
      "type": "error"
    },
    {
      "inputs": [
        {
          "internalType": "address",
          "name": "receiver",
          "type": "address"
        }
      ],
      "name": "ERC20InvalidReceiver",
      "type": "error"
    },
    {
      "inputs": [
        {
          "internalType": "address",
          "name": "sender",
          "type": "address"
        }
      ],
      "name": "ERC20InvalidSender",
      "type": "error"
    },
    {
      "inputs": [
        {
          "internalType": "address",
          "name": "spender",
          "type": "address"
        }
      ],
      "name": "ERC20InvalidSpender",
      "type": "error"
    },
    {
      "inputs": [
        {
          "internalType": "uint256",
          "name": "deadline",
          "type": "uint256"
        }
      ],
      "name": "ERC2612ExpiredSignature",
      "type": "error"
    },
    {
      "inputs": [
        {
          "internalType": "address",
          "name": "signer",
          "type": "address"
        },
        {
          "internalType": "address",
          "name": "owner",
          "type": "address"
        }
      ],
      "name": "ERC2612InvalidSigner",
      "type": "error"
    },
    {
      "inputs": [
        {
          "internalType": "address",
          "name": "account",
          "type": "address"
        },
        {
          "internalType": "uint256",
          "name": "currentNonce",
          "type": "uint256"
        }
      ],
      "name": "InvalidAccountNonce",
      "type": "error"
    },
    {
      "inputs": [],
      "name": "InvalidShortString",
      "type": "error"
    },
    {
      "inputs": [
        {
          "internalType": "string",
          "name": "str",
          "type": "string"
        }
      ],
      "name": "StringTooLong",
      "type": "error"
    },
    {
      "anonymous": false,
      "inputs": [
        {
          "indexed": true,
          "internalType": "address",
          "name": "owner",
          "type": "address"
        },
        {
          "indexed": true,
          "internalType": "address",
          "name": "spender",
          "type": "address"
        },
        {
          "indexed": false,
          "internalType": "uint256",
          "name": "value",
          "type": "uint256"
        }
      ],
      "name": "Approval",
      "type": "event"
    },
    {
      "anonymous": false,
      "inputs": [],
      "name": "EIP712DomainChanged",
      "type": "event"
    },
    {
      "anonymous": false,
      "inputs": [
        {
          "indexed": true,
          "internalType": "address",
          "name": "from",
          "type": "address"
        },
        {
          "indexed": true,
          "internalType": "address",
          "name": "to",
          "type": "address"
        },
        {
          "indexed": false,
          "internalType": "uint256",
          "name": "value",
          "type": "uint256"
        }
      ],
      "name": "Transfer",
      "type": "event"
    },
    {
      "inputs": [],
      "name": "DOMAIN_SEPARATOR",
      "outputs": [
        {
          "internalType": "bytes32",
          "name": "",
          "type": "bytes32"
        }
      ],
      "stateMutability": "view",
      "type": "function"
    },
    {
      "inputs": [
        {
          "internalType": "address",
          "name": "owner",
          "type": "address"
        },
        {
          "internalType": "address",
          "name": "spender",
          "type": "address"
        }
      ],
      "name": "allowance",
      "outputs": [
        {
          "internalType": "uint256",
          "name": "",
          "type": "uint256"
        }
      ],
      "stateMutability": "view",
      "type": "function"
    },
    {
      "inputs": [
        {
          "internalType": "address",
          "name": "spender",
          "type": "address"
        },
        {
          "internalType": "uint256",
          "name": "value",
          "type": "uint256"
        }
      ],
      "name": "approve",
      "outputs": [
        {
          "internalType": "bool",
          "name": "",
          "type": "bool"
        }
      ],
      "stateMutability": "nonpayable",
      "type": "function"
    },
    {
      "inputs": [
        {
          "internalType": "address",
          "name": "account",
          "type": "address"
        }
      ],
      "name": "balanceOf",
      "outputs": [
        {
          "internalType": "uint256",
          "name": "",
          "type": "uint256"
        }
      ],
      "stateMutability": "view",
      "type": "function"
    },
    {
      "inputs": [
        {
          "internalType": "uint256",
          "name": "value",
          "type": "uint256"
        }
      ],
      "name": "burn",
      "outputs": [],
      "stateMutability": "nonpayable",
      "type": "function"
    },
    {
      "inputs": [
        {
          "internalType": "address",
          "name": "account",
          "type": "address"
        },
        {
          "internalType": "uint256",
          "name": "value",
          "type": "uint256"
        }
      ],
      "name": "burnFrom",
      "outputs": [],
      "stateMutability": "nonpayable",
      "type": "function"
    },
    {
      "inputs": [],
      "name": "decimals",
      "outputs": [
        {
          "internalType": "uint8",
          "name": "",
          "type": "uint8"
        }
      ],
      "stateMutability": "view",
      "type": "function"
    },
    {
      "inputs": [],
      "name": "eip712Domain",
      "outputs": [
        {
          "internalType": "bytes1",
          "name": "fields",
          "type": "bytes1"
        },
        {
          "internalType": "string",
          "name": "name",
          "type": "string"
        },
        {
          "internalType": "string",
          "name": "version",
          "type": "string"
        },
        {
          "internalType": "uint256",
          "name": "chainId",
          "type": "uint256"
        },
        {
          "internalType": "address",
          "name": "verifyingContract",
          "type": "address"
        },
        {
          "internalType": "bytes32",
          "name": "salt",
          "type": "bytes32"
        },
        {
          "internalType": "uint256[]",
          "name": "extensions",
          "type": "uint256[]"
        }
      ],
      "stateMutability": "view",
      "type": "function"
    },
    {
      "inputs": [],
      "name": "name",
      "outputs": [
        {
          "internalType": "string",
          "name": "",
          "type": "string"
        }
      ],
      "stateMutability": "view",
      "type": "function"
    },
    {
      "inputs": [
        {
          "internalType": "address",
          "name": "owner",
          "type": "address"
        }
      ],
      "name": "nonces",
      "outputs": [
        {
          "internalType": "uint256",
          "name": "",
          "type": "uint256"
        }
      ],
      "stateMutability": "view",
      "type": "function"
    },
    {
      "inputs": [
        {
          "internalType": "address",
          "name": "owner",
          "type": "address"
        },
        {
          "internalType": "address",
          "name": "spender",
          "type": "address"
        },
        {
          "internalType": "uint256",
          "name": "value",
          "type": "uint256"
        },
        {
          "internalType": "uint256",
          "name": "deadline",
          "type": "uint256"
        },
        {
          "internalType": "uint8",
          "name": "v",
          "type": "uint8"
        },
        {
          "internalType": "bytes32",
          "name": "r",
          "type": "bytes32"
        },
        {
          "internalType": "bytes32",
          "name": "s",
          "type": "bytes32"
        }
      ],
      "name": "permit",
      "outputs": [],
      "stateMutability": "nonpayable",
      "type": "function"
    },
    {
      "inputs": [],
      "name": "symbol",
      "outputs": [
        {
          "internalType": "string",
          "name": "",
          "type": "string"
        }
      ],
      "stateMutability": "view",
      "type": "function"
    },
    {
      "inputs": [],
      "name": "tokenURI",
      "outputs": [
        {
          "internalType": "string",
          "name": "",
          "type": "string"
        }
      ],
      "stateMutability": "view",
      "type": "function"
    },
    {
      "inputs": [],
      "name": "totalSupply",
      "outputs": [
        {
          "internalType": "uint256",
          "name": "",
          "type": "uint256"
        }
      ],
      "stateMutability": "view",
      "type": "function"
    },
    {
      "inputs": [
        {
          "internalType": "address",
          "name": "to",
          "type": "address"
        },
        {
          "internalType": "uint256",
          "name": "value",
          "type": "uint256"
        }
      ],
      "name": "transfer",
      "outputs": [
        {
          "internalType": "bool",
          "name": "",
          "type": "bool"
        }
      ],
      "stateMutability": "nonpayable",
      "type": "function"
    },
    {
      "inputs": [
        {
          "internalType": "address",
          "name": "from",
          "type": "address"
        },
        {
          "internalType": "address",
          "name": "to",
          "type": "address"
        },
        {
          "internalType": "uint256",
          "name": "value",
          "type": "uint256"
        }
      ],
      "name": "transferFrom",
      "outputs": [
        {
          "internalType": "bool",
          "name": "",
          "type": "bool"
        }
      ],
      "stateMutability": "nonpayable",
      "type": "function"
    }
  ],
  "bytecode": "0x61016060405234801561001157600080fd5b50604051612b50380380612b508339818101604052810190610033919061071b565b6040518060400160405280600481526020017f474e4554000000000000000000000000000000000000000000000000000000008152506040518060400160405280600481526020017f474e4554000000000000000000000000000000000000000000000000000000008152506b033b2e3c9fd0803ce800000082806040518060400160405280600181526020017f3100000000000000000000000000000000000000000000000000000000000000815250858581600390816100f59190610985565b5080600490816101059190610985565b50505061011c6005836101dc60201b90919060201c565b61012081815250506101386006826101dc60201b90919060201c565b6101408181525050818051906020012060e08181525050808051906020012061010081815250504660a0818152505061017561022c60201b60201c565b608081815250503073ffffffffffffffffffffffffffffffffffffffff1660c08173ffffffffffffffffffffffffffffffffffffffff16815250505050506101c3338261028760201b60201c565b50505080600890816101d59190610985565b5050610ce6565b60006020835110156101fe576101f78361030f60201b60201c565b9050610226565b8261020e8361037760201b60201c565b600001908161021d9190610985565b5060ff60001b90505b92915050565b60007f8b73c3c69bb8fe3d512ecc4cf759cc79239f7b179b0ffacaa9a75d522b39400f60e05161010051463060405160200161026c959493929190610ac0565b60405160208183030381529060405280519060200120905090565b600073ffffffffffffffffffffffffffffffffffffffff168273ffffffffffffffffffffffffffffffffffffffff16036102f95760006040517fec442f050000000000000000000000000000000000000000000000000000000081526004016102f09190610b13565b60405180910390fd5b61030b6000838361038160201b60201c565b5050565b600080829050601f8151111561035c57826040517f305a27a90000000000000000000000000000000000000000000000000000000081526004016103539190610b78565b60405180910390fd5b80518161036890610bca565b60001c1760001b915050919050565b6000819050919050565b600073ffffffffffffffffffffffffffffffffffffffff168373ffffffffffffffffffffffffffffffffffffffff16036103d35780600260008282546103c79190610c60565b925050819055506104a6565b60008060008573ffffffffffffffffffffffffffffffffffffffff1673ffffffffffffffffffffffffffffffffffffffff1681526020019081526020016000205490508181101561045f578381836040517fe450d38c00000000000000000000000000000000000000000000000000000000815260040161045693929190610c94565b60405180910390fd5b8181036000808673ffffffffffffffffffffffffffffffffffffffff1673ffffffffffffffffffffffffffffffffffffffff16815260200190815260200160002081905550505b600073ffffffffffffffffffffffffffffffffffffffff168273ffffffffffffffffffffffffffffffffffffffff16036104ef578060026000828254039250508190555061053c565b806000808473ffffffffffffffffffffffffffffffffffffffff1673ffffffffffffffffffffffffffffffffffffffff168152602001908152602001600020600082825401925050819055505b8173ffffffffffffffffffffffffffffffffffffffff168373ffffffffffffffffffffffffffffffffffffffff167fddf252ad1be2c89b69c2b068fc378daa952ba7f163c4a11628f55a4df523b3ef836040516105999190610ccb565b60405180910390a3505050565b6000604051905090565b600080fd5b600080fd5b600080fd5b600080fd5b6000601f19601f8301169050919050565b7f4e487b7100000000000000000000000000000000000000000000000000000000600052604160045260246000fd5b61060d826105c4565b810181811067ffffffffffffffff8211171561062c5761062b6105d5565b5b80604052505050565b600061063f6105a6565b905061064b8282610604565b919050565b600067ffffffffffffffff82111561066b5761066a6105d5565b5b610674826105c4565b9050602081019050919050565b60005b8381101561069f578082015181840152602081019050610684565b60008484015250505050565b60006106be6106b984610650565b610635565b9050828152602081018484840111156106da576106d96105bf565b5b6106e5848285610681565b509392505050565b600082601f830112610702576107016105ba565b5b81516107128482602086016106ab565b91505092915050565b600060208284031215610731576107306105b0565b5b600082015167ffffffffffffffff81111561074f5761074e6105b5565b5b61075b848285016106ed565b91505092915050565b600081519050919050565b7f4e487b7100000000000000000000000000000000000000000000000000000000600052602260045260246000fd5b600060028204905060018216806107b657607f821691505b6020821081036107c9576107c861076f565b5b50919050565b60008190508160005260206000209050919050565b60006020601f8301049050919050565b600082821b905092915050565b6000600883026108317fffffffffffffffffffffffffffffffffffffffffffffffffffffffffffffffff826107f4565b61083b86836107f4565b95508019841693508086168417925050509392505050565b6000819050919050565b6000819050919050565b600061088261087d61087884610853565b61085d565b610853565b9050919050565b6000819050919050565b61089c83610867565b6108b06108a882610889565b848454610801565b825550505050565b600090565b6108c56108b8565b6108d0818484610893565b505050565b5b818110156108f4576108e96000826108bd565b6001810190506108d6565b5050565b601f8211156109395761090a816107cf565b610913846107e4565b81016020851015610922578190505b61093661092e856107e4565b8301826108d5565b50505b505050565b600082821c905092915050565b600061095c6000198460080261093e565b1980831691505092915050565b6000610975838361094b565b9150826002028217905092915050565b61098e82610764565b67ffffffffffffffff8111156109a7576109a66105d5565b5b6109b1825461079e565b6109bc8282856108f8565b600060209050601f8311600181146109ef57600084156109dd578287015190505b6109e78582610969565b865550610a4f565b601f1984166109fd866107cf565b60005b82811015610a2557848901518255600182019150602085019450602081019050610a00565b86831015610a425784890151610a3e601f89168261094b565b8355505b6001600288020188555050505b505050505050565b6000819050919050565b610a6a81610a57565b82525050565b610a7981610853565b82525050565b600073ffffffffffffffffffffffffffffffffffffffff82169050919050565b6000610aaa82610a7f565b9050919050565b610aba81610a9f565b82525050565b600060a082019050610ad56000830188610a61565b610ae26020830187610a61565b610aef6040830186610a61565b610afc6060830185610a70565b610b096080830184610ab1565b9695505050505050565b6000602082019050610b286000830184610ab1565b92915050565b600082825260208201905092915050565b6000610b4a82610764565b610b548185610b2e565b9350610b64818560208601610681565b610b6d816105c4565b840191505092915050565b60006020820190508181036000830152610b928184610b3f565b905092915050565b600081519050919050565b6000819050602082019050919050565b6000610bc18251610a57565b80915050919050565b6000610bd582610b9a565b82610bdf84610ba5565b9050610bea81610bb5565b92506020821015610c2a57610c257fffffffffffffffffffffffffffffffffffffffffffffffffffffffffffffffff836020036008026107f4565b831692505b5050919050565b7f4e487b7100000000000000000000000000000000000000000000000000000000600052601160045260246000fd5b6000610c6b82610853565b9150610c7683610853565b9250828201905080821115610c8e57610c8d610c31565b5b92915050565b6000606082019050610ca96000830186610ab1565b610cb66020830185610a70565b610cc36040830184610a70565b949350505050565b6000602082019050610ce06000830184610a70565b92915050565b60805160a05160c05160e051610100516101205161014051611e10610d406000396000610c0a01526000610bcf0152600061111f015260006110fe01526000610a4801526000610a9e01526000610ac70152611e106000f3fe608060405234801561001057600080fd5b50600436106101005760003560e01c806370a082311161009757806395d89b411161006657806395d89b41146102b7578063a9059cbb146102d5578063d505accf14610305578063dd62ed3e1461032157610100565b806370a082311461021757806379cc6790146102475780637ecebe001461026357806384b0196e1461029357610100565b8063313ce567116100d3578063313ce567146101a15780633644e515146101bf5780633c130d90146101dd57806342966c68146101fb57610100565b806306fdde0314610105578063095ea7b31461012357806318160ddd1461015357806323b872dd14610171575b600080fd5b61010d610351565b60405161011a919061160c565b60405180910390f35b61013d600480360381019061013891906116c7565b6103e3565b60405161014a9190611722565b60405180910390f35b61015b610406565b604051610168919061174c565b60405180910390f35b61018b60048036038101906101869190611767565b610410565b6040516101989190611722565b60405180910390f35b6101a961043f565b6040516101b691906117d6565b60405180910390f35b6101c7610448565b6040516101d4919061180a565b60405180910390f35b6101e5610457565b6040516101f2919061160c565b60405180910390f35b61021560048036038101906102109190611825565b6104e5565b005b610231600480360381019061022c9190611852565b6104f9565b60405161023e919061174c565b60405180910390f35b610261600480360381019061025c91906116c7565b610541565b005b61027d60048036038101906102789190611852565b610561565b60405161028a919061174c565b60405180910390f35b61029b610573565b6040516102ae9796959493929190611987565b60405180910390f35b6102bf61061d565b6040516102cc919061160c565b60405180910390f35b6102ef60048036038101906102ea91906116c7565b6106af565b6040516102fc9190611722565b60405180910390f35b61031f600480360381019061031a9190611a63565b6106d2565b005b61033b60048036038101906103369190611b05565b61081a565b604051610348919061174c565b60405180910390f35b60606003805461036090611b74565b80601f016020809104026020016040519081016040528092919081815260200182805461038c90611b74565b80156103d95780601f106103ae576101008083540402835291602001916103d9565b820191906000526020600020905b8154815290600101906020018083116103bc57829003601f168201915b5050505050905090565b6000806103ee6108a1565b90506103fb8185856108a9565b600191505092915050565b6000600254905090565b60008061041b6108a1565b90506104288582856108bb565b610433858585610950565b60019150509392505050565b60006012905090565b6000610452610a44565b905090565b6008805461046490611b74565b80601f016020809104026020016040519081016040528092919081815260200182805461049090611b74565b80156104dd5780601f106104b2576101008083540402835291602001916104dd565b820191906000526020600020905b8154815290600101906020018083116104c057829003601f168201915b505050505081565b6104f66104f06108a1565b82610afb565b50565b60008060008373ffffffffffffffffffffffffffffffffffffffff1673ffffffffffffffffffffffffffffffffffffffff168152602001908152602001600020549050919050565b6105538261054d6108a1565b836108bb565b61055d8282610afb565b5050565b600061056c82610b7d565b9050919050565b600060608060008060006060610587610bc6565b61058f610c01565b46306000801b600067ffffffffffffffff8111156105b0576105af611ba5565b5b6040519080825280602002602001820160405280156105de5781602001602082028036833780820191505090505b507f0f00000000000000000000000000000000000000000000000000000000000000959493929190965096509650965096509650965090919293949596565b60606004805461062c90611b74565b80601f016020809104026020016040519081016040528092919081815260200182805461065890611b74565b80156106a55780601f1061067a576101008083540402835291602001916106a5565b820191906000526020600020905b81548152906001019060200180831161068857829003601f168201915b5050505050905090565b6000806106ba6108a1565b90506106c7818585610950565b600191505092915050565b8342111561071757836040517f6279130200000000000000000000000000000000000000000000000000000000815260040161070e919061174c565b60405180910390fd5b60007f6e71edae12b1b97f4d1f60370fef10105fa2faae0126114a169c64845d6126c98888886107468c610c3c565b8960405160200161075c96959493929190611bd4565b604051602081830303815290604052805190602001209050600061077f82610c93565b9050600061078f82878787610cad565b90508973ffffffffffffffffffffffffffffffffffffffff168173ffffffffffffffffffffffffffffffffffffffff161461080357808a6040517f4b800e460000000000000000000000000000000000000000000000000000000081526004016107fa929190611c35565b60405180910390fd5b61080e8a8a8a6108a9565b50505050505050505050565b6000600160008473ffffffffffffffffffffffffffffffffffffffff1673ffffffffffffffffffffffffffffffffffffffff16815260200190815260200160002060008373ffffffffffffffffffffffffffffffffffffffff1673ffffffffffffffffffffffffffffffffffffffff16815260200190815260200160002054905092915050565b600033905090565b6108b68383836001610cdd565b505050565b60006108c7848461081a565b90507fffffffffffffffffffffffffffffffffffffffffffffffffffffffffffffffff81101561094a578181101561093a578281836040517ffb8f41b200000000000000000000000000000000000000000000000000000000815260040161093193929190611c5e565b60405180910390fd5b61094984848484036000610cdd565b5b50505050565b600073ffffffffffffffffffffffffffffffffffffffff168373ffffffffffffffffffffffffffffffffffffffff16036109c25760006040517f96c6fd1e0000000000000000000000000000000000000000000000000000000081526004016109b99190611c95565b60405180910390fd5b600073ffffffffffffffffffffffffffffffffffffffff168273ffffffffffffffffffffffffffffffffffffffff1603610a345760006040517fec442f05000000000000000000000000000000000000000000000000000000008152600401610a2b9190611c95565b60405180910390fd5b610a3f838383610eb4565b505050565b60007f000000000000000000000000000000000000000000000000000000000000000073ffffffffffffffffffffffffffffffffffffffff163073ffffffffffffffffffffffffffffffffffffffff16148015610ac057507f000000000000000000000000000000000000000000000000000000000000000046145b15610aed577f00000000000000000000000000000000000000000000000000000000000000009050610af8565b610af56110d9565b90505b90565b600073ffffffffffffffffffffffffffffffffffffffff168273ffffffffffffffffffffffffffffffffffffffff1603610b6d5760006040517f96c6fd1e000000000000000000000000000000000000000000000000000000008152600401610b649190611c95565b60405180910390fd5b610b7982600083610eb4565b5050565b6000600760008373ffffffffffffffffffffffffffffffffffffffff1673ffffffffffffffffffffffffffffffffffffffff168152602001908152602001600020549050919050565b6060610bfc60057f000000000000000000000000000000000000000000000000000000000000000061116f90919063ffffffff16565b905090565b6060610c3760067f000000000000000000000000000000000000000000000000000000000000000061116f90919063ffffffff16565b905090565b6000600760008373ffffffffffffffffffffffffffffffffffffffff1673ffffffffffffffffffffffffffffffffffffffff1681526020019081526020016000206000815480929190600101919050559050919050565b6000610ca6610ca0610a44565b8361121f565b9050919050565b600080600080610cbf88888888611260565b925092509250610ccf8282611354565b829350505050949350505050565b600073ffffffffffffffffffffffffffffffffffffffff168473ffffffffffffffffffffffffffffffffffffffff1603610d4f5760006040517fe602df05000000000000000000000000000000000000000000000000000000008152600401610d469190611c95565b60405180910390fd5b600073ffffffffffffffffffffffffffffffffffffffff168373ffffffffffffffffffffffffffffffffffffffff1603610dc15760006040517f94280d62000000000000000000000000000000000000000000000000000000008152600401610db89190611c95565b60405180910390fd5b81600160008673ffffffffffffffffffffffffffffffffffffffff1673ffffffffffffffffffffffffffffffffffffffff16815260200190815260200160002060008573ffffffffffffffffffffffffffffffffffffffff1673ffffffffffffffffffffffffffffffffffffffff168152602001908152602001600020819055508015610eae578273ffffffffffffffffffffffffffffffffffffffff168473ffffffffffffffffffffffffffffffffffffffff167f8c5be1e5ebec7d5bd14f71427d1e84f3dd0314c0f7b2291e5b200ac8c7c3b92584604051610ea5919061174c565b60405180910390a35b50505050565b600073ffffffffffffffffffffffffffffffffffffffff168373ffffffffffffffffffffffffffffffffffffffff1603610f06578060026000828254610efa9190611cdf565b92505081905550610fd9565b60008060008573ffffffffffffffffffffffffffffffffffffffff1673ffffffffffffffffffffffffffffffffffffffff16815260200190815260200160002054905081811015610f92578381836040517fe450d38c000000000000000000000000000000000000000000000000000000008152600401610f8993929190611c5e565b60405180910390fd5b8181036000808673ffffffffffffffffffffffffffffffffffffffff1673ffffffffffffffffffffffffffffffffffffffff16815260200190815260200160002081905550505b600073ffffffffffffffffffffffffffffffffffffffff168273ffffffffffffffffffffffffffffffffffffffff1603611022578060026000828254039250508190555061106f565b806000808473ffffffffffffffffffffffffffffffffffffffff1673ffffffffffffffffffffffffffffffffffffffff168152602001908152602001600020600082825401925050819055505b8173ffffffffffffffffffffffffffffffffffffffff168373ffffffffffffffffffffffffffffffffffffffff167fddf252ad1be2c89b69c2b068fc378daa952ba7f163c4a11628f55a4df523b3ef836040516110cc919061174c565b60405180910390a3505050565b60007f8b73c3c69bb8fe3d512ecc4cf759cc79239f7b179b0ffacaa9a75d522b39400f7f00000000000000000000000000000000000000000000000000000000000000007f00000000000000000000000000000000000000000000000000000000000000004630604051602001611154959493929190611d13565b60405160208183030381529060405280519060200120905090565b606060ff60001b831461118c57611185836114b8565b9050611219565b81805461119890611b74565b80601f01602080910402602001604051908101604052809291908181526020018280546111c490611b74565b80156112115780601f106111e657610100808354040283529160200191611211565b820191906000526020600020905b8154815290600101906020018083116111f457829003601f168201915b505050505090505b92915050565b60006040517f190100000000000000000000000000000000000000000000000000000000000081528360028201528260228201526042812091505092915050565b60008060007f7fffffffffffffffffffffffffffffff5d576e7357a4501ddfe92f46681b20a08460001c11156112a057600060038592509250925061134a565b6000600188888888604051600081526020016040526040516112c59493929190611d66565b6020604051602081039080840390855afa1580156112e7573d6000803e3d6000fd5b505050602060405103519050600073ffffffffffffffffffffffffffffffffffffffff168173ffffffffffffffffffffffffffffffffffffffff160361133b57600060016000801b9350935093505061134a565b8060008060001b935093509350505b9450945094915050565b6000600381111561136857611367611dab565b5b82600381111561137b5761137a611dab565b5b03156114b4576001600381111561139557611394611dab565b5b8260038111156113a8576113a7611dab565b5b036113df576040517ff645eedf00000000000000000000000000000000000000000000000000000000815260040160405180910390fd5b600260038111156113f3576113f2611dab565b5b82600381111561140657611405611dab565b5b0361144b578060001c6040517ffce698f7000000000000000000000000000000000000000000000000000000008152600401611442919061174c565b60405180910390fd5b60038081111561145e5761145d611dab565b5b82600381111561147157611470611dab565b5b036114b357806040517fd78bce0c0000000000000000000000000000000000000000000000000000000081526004016114aa919061180a565b60405180910390fd5b5b5050565b606060006114c58361152c565b90506000602067ffffffffffffffff8111156114e4576114e3611ba5565b5b6040519080825280601f01601f1916602001820160405280156115165781602001600182028036833780820191505090505b5090508181528360208201528092505050919050565b60008060ff8360001c169050601f811115611573576040517fb3512b0c00000000000000000000000000000000000000000000000000000000815260040160405180910390fd5b80915050919050565b600081519050919050565b600082825260208201905092915050565b60005b838110156115b657808201518184015260208101905061159b565b60008484015250505050565b6000601f19601f8301169050919050565b60006115de8261157c565b6115e88185611587565b93506115f8818560208601611598565b611601816115c2565b840191505092915050565b6000602082019050818103600083015261162681846115d3565b905092915050565b600080fd5b600073ffffffffffffffffffffffffffffffffffffffff82169050919050565b600061165e82611633565b9050919050565b61166e81611653565b811461167957600080fd5b50565b60008135905061168b81611665565b92915050565b6000819050919050565b6116a481611691565b81146116af57600080fd5b50565b6000813590506116c18161169b565b92915050565b600080604083850312156116de576116dd61162e565b5b60006116ec8582860161167c565b92505060206116fd858286016116b2565b9150509250929050565b60008115159050919050565b61171c81611707565b82525050565b60006020820190506117376000830184611713565b92915050565b61174681611691565b82525050565b6000602082019050611761600083018461173d565b92915050565b6000806000606084860312156117805761177f61162e565b5b600061178e8682870161167c565b935050602061179f8682870161167c565b92505060406117b0868287016116b2565b9150509250925092565b600060ff82169050919050565b6117d0816117ba565b82525050565b60006020820190506117eb60008301846117c7565b92915050565b6000819050919050565b611804816117f1565b82525050565b600060208201905061181f60008301846117fb565b92915050565b60006020828403121561183b5761183a61162e565b5b6000611849848285016116b2565b91505092915050565b6000602082840312156118685761186761162e565b5b60006118768482850161167c565b91505092915050565b60007fff0000000000000000000000000000000000000000000000000000000000000082169050919050565b6118b48161187f565b82525050565b6118c381611653565b82525050565b600081519050919050565b600082825260208201905092915050565b6000819050602082019050919050565b6118fe81611691565b82525050565b600061191083836118f5565b60208301905092915050565b6000602082019050919050565b6000611934826118c9565b61193e81856118d4565b9350611949836118e5565b8060005b8381101561197a5781516119618882611904565b975061196c8361191c565b92505060018101905061194d565b5085935050505092915050565b600060e08201905061199c600083018a6118ab565b81810360208301526119ae81896115d3565b905081810360408301526119c281886115d3565b90506119d1606083018761173d565b6119de60808301866118ba565b6119eb60a08301856117fb565b81810360c08301526119fd8184611929565b905098975050505050505050565b611a14816117ba565b8114611a1f57600080fd5b50565b600081359050611a3181611a0b565b92915050565b611a40816117f1565b8114611a4b57600080fd5b50565b600081359050611a5d81611a37565b92915050565b600080600080600080600060e0888a031215611a8257611a8161162e565b5b6000611a908a828b0161167c565b9750506020611aa18a828b0161167c565b9650506040611ab28a828b016116b2565b9550506060611ac38a828b016116b2565b9450506080611ad48a828b01611a22565b93505060a0611ae58a828b01611a4e565b92505060c0611af68a828b01611a4e565b91505092959891949750929550565b60008060408385031215611b1c57611b1b61162e565b5b6000611b2a8582860161167c565b9250506020611b3b8582860161167c565b9150509250929050565b7f4e487b7100000000000000000000000000000000000000000000000000000000600052602260045260246000fd5b60006002820490506001821680611b8c57607f821691505b602082108103611b9f57611b9e611b45565b5b50919050565b7f4e487b7100000000000000000000000000000000000000000000000000000000600052604160045260246000fd5b600060c082019050611be960008301896117fb565b611bf660208301886118ba565b611c0360408301876118ba565b611c10606083018661173d565b611c1d608083018561173d565b611c2a60a083018461173d565b979650505050505050565b6000604082019050611c4a60008301856118ba565b611c5760208301846118ba565b9392505050565b6000606082019050611c7360008301866118ba565b611c80602083018561173d565b611c8d604083018461173d565b949350505050565b6000602082019050611caa60008301846118ba565b92915050565b7f4e487b7100000000000000000000000000000000000000000000000000000000600052601160045260246000fd5b6000611cea82611691565b9150611cf583611691565b9250828201905080821115611d0d57611d0c611cb0565b5b92915050565b600060a082019050611d2860008301886117fb565b611d3560208301876117fb565b611d4260408301866117fb565b611d4f606083018561173d565b611d5c60808301846118ba565b9695505050505050565b6000608082019050611d7b60008301876117fb565b611d8860208301866117c7565b611d9560408301856117fb565b611da260608301846117fb565b95945050505050565b7f4e487b7100000000000000000000000000000000000000000000000000000000600052602160045260246000fdfea2646970667358221220f506b144415833e11aa5c6c4ba368b2231dc88a03009f6963369d46091bb8fe164736f6c634300081c0033",
  "linkReferences": {},
  "deployedLinkReferences": {}
}